:1000000099C0000031C10000ACC00000AAC00000CF
:10001000A8C00000A6C00000A4C00000A2C000004C
:10002000A0C000009EC000009CC000009AC000005C
:1000300098C0000096C0000094C0000092C000006C
:1000400090C000008EC000008CC000008AC000007C
:1000500088C0000086C0000084C0000082C000008C
:1000600080C000007EC000007CC000007AC000009C
:1000700078C0000076C0000074C0000072C00000AC
:1000800070C000006EC000006CC000006AC00000BC
:1000900068C0000066C0000064C0000062C00000CC
:1000A00060C000005EC000005CC000005AC00000DC
:1000B00058C0000056C0000054C0000052C00000EC
:1000C00050C000004EC000004CC000004AC00000FC
:1000D00048C0000046C0000044C0000042C000000C
:1000E00040C000003EC000003CC000003AC000001C
:1000F00038C0000036C0000034C0000032C000002C
:1001000030C000002EC000002CC000002AC000003B
:1001100028C0000026C0000024C0000022C000004B
:1001200020C000001EC000001CC000001AC000005B
:1001300018C0000011241FBECFEFD1E8DEBFCDBF35
:1001400000E00CBF12E0A0E0B2E0EAE1F4E000E081
:100150000BBF02C007900D92A43EB107D9F7ACD0F7
:100160005AC14ECF9C0140E050E060E271EA87E066
:1001700090E013D1215031093093CD002093CC0071
:1001800088E18093C90086E08093CA000895909129
:10019000C80095FFFCCF8093CE000895CF93DF93E6
:1001A000EC0102C02196F3DF88818111FBCFDF9142
:1001B000CF9108958091C8008823E4F78091CE0004
:1001C000089580E092E0EACF089585E092E0E6CFDE
:1001D000089580E784B985B1806185B92FEF84E304
:1001E0009CE0215080409040E1F700C0000085B1C4
:1001F0008F7E85B92FEF84E39CE0215080409040B2
:10020000E1F700C0000085B1806285B92FEF84E37B
:100210009CE0215080409040E1F700C0000085B193
:100220008F7D85B92FEF84E39CE021508040904082
:10023000E1F700C0000085B1806485B92FEF84E349
:100240009CE0215080409040E1F700C0000085B163
:100250008F7B85B92FEF84E39CE021508040904054
:10026000E1F700C0000008951F920F920FB60F92A1
:1002700011240BB60F922F933F934F935F936F937D
:100280007F938F939F93AF93BF93EF93FF9381E3FC
:100290007EDFFF91EF91BF91AF919F918F917F9101
:1002A0006F915F914F913F912F910F900BBE0F90E7
:1002B0000FBE0F901F901895CF9380E096E952DF04
:1002C00078948AB18B7F8AB98BB184608BB98DB3F6
:1002D00081608DBBE9E6F0E080818260808375DF1C
:1002E00080E192E05BDF88E192E058DF8FE292E00C
:1002F00055DF87E492E052DF80E692E04FDF84E74B
:1003000092E04CDF57DF8233E1F030F4803309F4C0
:100310003DC0813351F036C08333D9F08433F1F0DE
:1003200031C08C2F34DFCF5F01C0C1E6CB37C8F3BB
:100330008DE02DDF8AE02BDFE5CF8C2F28DFCF5F2C
:1003400001C0C1E4CB35C8F38DE021DF8AE01FDFB7
:10035000D9CF8EEA92E022DF3CDFD4CF32DF80E1DA
:1003600092E01CDF88E192E019DF8FE292E016DF75
:1003700087E492E013DF80E692E010DF84E792E00A
:100380000DDFC0CF8DEB92E009DFBCCF8BE992E0AF
:1003900005DF80E090E0CF910895052E97FB16F4DD
:1003A00000940FD057FD05D014D007FC02D046F4BE
:1003B00008C050954095309521953F4F4F4F5F4F66
:1003C000089590958095709561957F4F8F4F9F4FC1
:1003D0000895A1E21A2EAA1BBB1BFD010DC0AA1F86
:1003E000BB1FEE1FFF1FA217B307E407F50720F09E
:1003F000A21BB30BE40BF50B661F771F881F991F19
:100400001A9469F760957095809590959B01AC0161
:0A041000BD01CF010895F894FFCF5D
:10041A001B5B324A001B5B33316D001B5B306D0086
:10042A004D454E553A0D0A00303A20556B6F6E63B2
:10043A00656E692070726F6772616D750D0A0031A1
:10044A003A205679706973206D616C652061626526
:10045A00636564790D0A00323A205679706973200F
:10046A0076656C6B6520616265636564790D0A0067
:10047A00333A20426C696B616E69204C45442033E3
:10048A00780D0A00343A2056796D617A6174206FCA
:10049A006272617A6F766B752061207A6F6272611F
:1004AA007A6974204D454E550D0A0050726F677275
:1004BA00616D20756B6F6E63656E2E0D0A00426C5E
:1004CA00696B616E69204C45442E0D0A004E657AAF
:1004DA006E616D792076737475702C207A6164650B
:1004EA006A746520686F646E6F747520302D342EBF
:0404FA000D0A0000E7
:00000001FF
