S00E00004C4142322D612E7372656387
S113000099C00000B6C00000B4C00000B2C0000037
S1130010B0C00000A2C10000ACC00000AAC0000033
S1130020A8C00000A6C00000A4C00000A2C0000038
S1130030A0C00000FCC200009CC000009AC00000E8
S113004098C00000E2C2000094C0000092C000000A
S113005090C000008EC000008CC000008AC0000068
S113006088C0000086C0000084C0000082C0000078
S113007080C000007EC000007CC000007AC0000088
S113008078C0000076C0000074C0000072C0000098
S11300908FC100006EC000006CC000006AC0000088
S11300A068C0000066C0000064C0000062C00000B8
S11300B060C000005EC000005CC000005AC00000C8
S11300C058C0000056C0000054C0000052C00000D8
S11300D050C000004EC000004CC000004AC00000E8
S11300E048C0000046C0000044C0000042C00000F8
S11300F040C000003EC000003CC000003AC0000008
S113010038C0000036C0000034C0000032C0000017
S113011030C000002EC000002CC000002AC0000027
S113012028C0000026C0000024C0000022C0000037
S113013020C0000011241FBECFEFD1E8DEBFCDBF29
S113014000E00CBF13E0A0E0B2E0E0E7FDE000E077
S11301500BBF02C007900D92AA38B107D9F723E06C
S1130160AAE8B3E001C01D92A339B207E1F79BD11D
S1130170FDC546CFF89480E096E96BD2E9ECF0E057
S113018080818068808382E092E0909390038093E2
S11301908F0384B1806184B985B1806185B984B1EC
S11301A0806284B985B1806285B98DB18F7E8DB945
S11301B08EB180618EB98DB380618DBBEAE6F0E0CB
S11301C080818260808380818160808378940895B7
S11301D0CF93DF938BE152D280E192E05DD28BE149
S11301E04DD284E192E058D2CEE1D2E0DF93CF93B6
S11301F0CDD286E492E09F938F93C8D28FE492E0AD
S11302009F938F93C3D28BE592E09F938F93BED23B
S11302108FE692E09F938F93B9D282E892E09F9306
S11302208F93B4D280E992E09F938F93AFD285EA03
S113023092E09F938F93AAD2DF93CF93A7D28BE1BF
S11302401DD285EC92E028D28DB79EB742960FB6A8
S1130250F8949EBF0FBE8DBFDF91CF910895CF93C9
S1130260DF93CEE1D2E0DF93CF9390D286E492E0A5
S11302709F938F938BD28FEC92E09F938F9386D230
S113028084EE92E09F938F9381D288EF92E09F93C4
S11302908F937CD2DF93CF9379D28DB79EB70C9690
S11302A00FB6F8949EBF0FBE8DBFDF91CF91089516
S11302B080E784B985B92FEF34E39CE021503040C6
S11302C09040E1F700C0000015B82FEF34E39CE044
S11302D0215030409040E1F700C0000085B92FEF75
S11302E034E39CE0215030409040E1F700C000002E
S11302F015B82FEF34E39CE0215030409040E1F7F3
S113030000C0000085B92FEF34E39CE02150304059
S11303109040E1F700C0000015B82FEF34E39CE0F3
S1130320215030409040E1F700C0000085B92FEF24
S113033034E38CE0215030408040E1F700C00000FD
S113034015B89FEF24E33CE0915020403040E1F7A2
S113035000C0000014B815B808951F920F920FB68C
S11303600F9211242F938F939F938DB38F7E8DBB08
S11303702FEF81EE94E0215080409040E1F700C0DF
S1130380000080918B038F5F80938B0395B180E194
S1130390892785B98CB380618CBB8DB380618DBB9B
S11303A09F918F912F910F900FBE0F901F901895D2
S11303B01F920F920FB60F9211240BB60F922F9328
S11303C03F934F935F936F937F938F939F93AF93D9
S11303D0BF93EF93FF9359D180938C0380918C0347
S11303E04DD181E080938A03FF91EF91BF91AF914A
S11303F09F918F917F916F915F914F913F912F9139
S11304000F900BBE0F900FBE0F901F901895CF93B7
S1130410DF93F894A0E8B0E01C92E1E8F0E01082E9
S1130420CFE6D0E0188280EA97E090938900809329
S11304308800808188608083808185608083888152
S1130440826088838C9180648C937894DF91CF91BF
S11304500895CF93DF93F894E0EBF0E0108221EB62
S113046030E0D9011C92C0E7D0E01882BFEF8B9F27
S1130470C001112464E670E024D16093B30080814C
S113048082608083808181608083D9018C918560C2
S11304908C9388818160888380818068808378944C
S11304A0DF91CF91089504DF65DE2FEF80E792E0BE
S11304B0215080409040E1F700C0000089DE2FEF1A
S11304C080E792E0215080409040E1F700C00000B6
S11304D080918A03813009F08EC0809100028230BD
S11304E009F039C080918C038D32E9F018F48B3215
S11304F071F02DC0803319F0833309F128C08CE0EA
S113050093E057D165DE81E08093000272C0809150
S113051001028B3018F08A5080930102809101020D
S113052090E097DF66C080910102843618F4865FFC
S1130530809301028091010290E08BDF5AC082E235
S113054093E037D145DE81E08093000252C08DE311
S113055093E02FD14EC080910002813009F049C050
S113056080918C038233C1F028F4803349F08133C5
S113057061F03CC08433F9F0B0F0853381F136C0CA
S11305808CE093E016D124DE34C085B18F7D85B92B
S113059082EE92E00ED12DC082EE92E00AD185B1B6
S11305A0806285B926C082E593E003D158DE82E0FB
S11305B0809300021EC082EE92E0FBD0C1E4D0E042
S11305C003C08C2F5BD02196CA35D105D4F381EEBC
S11305D092E09F938F93DAD00F900F900AC08DE62C
S11305E093E0E7D084E89EE112DF03C08DE393E05B
S11305F0E0D010928A032FEF80E792E021508040F0
S11306009040E1F700C0000063CF1F920F920FB635
S11306100F9211248F939F939EB188E089278EB9FE
S11306209F918F910F900FBE0F901F9018951F925E
S11306300F920FB60F9211248F939F939EB188E06F
S113064089278EB99F918F910F900FBE0F901F90A5
S113065018959C0140E050E060E271EA87E090E088
S113066043D02150310986E08093CA003093CD00F5
S11306702093CC0088E18093C90008959091C8002C
S113068095FFFCCF8093CE0008958091C800882305
S1130690E4F78091CE000895CF93DF93EC0102C07C
S11306A0EDDF219688818111FBCFDF91CF910895F1
S11306B09091C80095FFFCCF8093CE0080E090E03D
S11306C0089597FB072E16F4009406D077FD08D002
S11306D027D007FC05D03EF4909581959F4F08954F
S11306E0709561957F4F0895052E97FB16F400943D
S11306F00FD057FD05D028D007FC02D046F408C01F
S113070050954095309521953F4F4F4F5F4F089539
S113071090958095709561957F4F8F4F9F4F089569
S1130720AA1BBB1B51E107C0AA1FBB1FA617B70713
S113073010F0A61BB70B881F991F5A95A9F780952F
S11307409095BC01CD010895A1E21A2EAA1BBB1BF2
S1130750FD010DC0AA1FBB1FEE1FFF1FA217B30789
S1130760E407F50720F0A21BB30BE40BF50B661F9F
S1130770771F881F991F1A9469F760957095809563
S113078090959B01AC01BD01CF010895CF93DF93F8
S1130790CDB7DEB7AE014A5F5F4FFA016191719147
S11307A0AF0180918F039091900333D0DF91CF916B
S11307B008950F931F93CF93DF93E0918F03F091EC
S11307C09003238121FF1BC08C01D0E0C0E0F8011D
S11307D081918F0160918F0370919003DB011896D2
S11307E0ED91FC911997882331F01995892B79F3B0
S11307F0DFEFCFEFECCF8AE01995892B19F08FEF5B
S11308009FEF02C08D2F9C2FDF91CF911F910F91ED
S113081008952F923F924F925F926F927F928F92A0
S11308209F92AF92BF92CF92DF92EF92FF920F937B
S11308301F93CF93DF93CDB7DEB72B970FB6F89402
S1130840DEBF0FBECDBF6C017B018A01FC011782A4
S11308501682838181FFBFC1CE0101963C01F6015E
S11308609381F70193FD859193FF81917F01882303
S113087009F4ADC1853239F493FD859193FF8191DB
S11308807F01853221F4B60190E0D6D1E8CF912CD6
S1130890212C312CFFE1F315D8F08B3279F038F4A8
S11308A0803279F08332A1F4232D20611DC08D3272
S11308B061F0803369F4232D216016C0832D82609A
S11308C0382EE32DE4603E2E2AC0F32DF8601DC0BF
S11308D037FC2DC020ED280F2A3040F08E32B9F4B9
S11308E036FC75C1232D2064322E19C036FE06C095
S11308F08AE0989E200D1124922E11C0EAE02E9ECB
S1130900200D1124222EF32DF0623F2E08C08C36C8
S113091021F4832D8068382E02C0883641F4F70113
S113092093FD859193FF81917F018111B3CF982F1E
S11309309F7D9554933028F40C5F1F4F9FE3998358
S11309400DC0833631F0833771F0833509F055C01B
S113095020C0F801808189830E5F1F4F882483940F
S1130960912C530112C02801F2E04F0E511CF801E2
S1130970A080B18036FE03C0692D70E002C06FEF25
S11309807FEFC5014ED14C018201F32DFF773F2E3D
S113099015C0280122E0420E511CF801A080B1804C
S11309A036FE03C0692D70E002C06FEF7FEFC50112
S11309B02DD14C01F32DF0683F2E820133FC19C078
S11309C0822D90E088169906A0F4B60180E290E0AA
S11309D033D12A94F5CFF50137FC859137FE819107
S11309E05F01B60190E028D121102A9421E0821AF7
S11309F091088114910479F7E1C0843611F08936A5
S1130A0039F5F80137FE07C06081718182819381D5
S1130A100C5F1F4F08C060817181072E000C880B8A
S1130A20990B0E5F1F4FF32DFF763F2E97FF09C0E2
S1130A3090958095709561957F4F8F4F9F4FF0688B
S1130A403F2E2AE030E0A30133D1882E861844C01B
S1130A50853731F4232D2F7EB22E2AE030E025C0D5
S1130A60932D997FB92E8F36C1F018F4883579F01B
S1130A70AEC0803719F0883721F0A9C0E92FE061B2
S1130A80BE2EB4FE0DC0FB2DF460BF2E09C034FE93
S1130A900AC0292F2660B22E06C028E030E005C027
S1130AA020E130E002C020E132E0F801B7FE07C0E7
S1130AB060817181828193810C5F1F4F06C06081C8
S1130AC0718180E090E00E5F1F4FA301F1D0882E6A
S1130AD08618FB2DFF773F2E36FE0DC0232D2E7F6B
S1130AE0A22E891458F434FE0BC032FC09C0832DA5
S1130AF08E7EA82E05C0B82CA32C03C0B82C01C030
S1130B00B92CA4FE0FC0FE01E80DF11D80818033D5
S1130B1021F49A2D997EA92E09C0A2FE06C0B39491
S1130B20B39404C08A2D867809F0B394A3FC10C052
S1130B30A0FE06C0B21480F4280C922C9B180DC0A1
S1130B40B21458F4B60180E290E076D0B394F8CFB2
S1130B50B21418F42B1802C0982C212CA4FE0FC038
S1130B60B60180E390E068D0A2FE16C0A1FC03C0E9
S1130B7088E790E002C088E590E0B6010CC08A2DB9
S1130B80867851F0A1FE02C08BE201C080E2A7FC8E
S1130B908DE2B60190E050D0891430F4B60180E3C0
S1130BA090E04AD09A94F8CF8A94F301E80DF11DAD
S1130BB08081B60190E040D08110F6CF222009F464
S1130BC04ECEB60180E290E037D02A94F7CFF601FA
S1130BD08681978102C08FEF9FEF2B960FB6F89412
S1130BE0DEBF0FBECDBFDF91CF911F910F91FF905C
S1130BF0EF90DF90CF90BF90AF909F908F907F90B9
S1130C006F905F904F903F902F900895FC01059056
S1130C10615070400110D8F7809590958E0F9F1FFA
S1130C200895FC016150704001900110D8F780953F
S1130C3090958E0F9F1F08950F931F93CF93DF936B
S1130C40FB01238121FD03C08FEF9FEF2CC022FF06
S1130C5016C046815781248135814217530744F4D5
S1130C60A081B1819D012F5F3F4F318320838C93FD
S1130C70268137812F5F3F4F3783268314C08B0132
S1130C80EC01FB010084F185E02D1995892BE1F637
S1130C90D80116968D919C911797019617969C935F
S1130CA08E931697CE01DF91CF911F910F910895E6
S1130CB0FA01AA27283051F1203181F1E8946F9389
S1130CC06E7F6E5F7F4F8F4F9F4FAF4FB1E03ED02F
S1130CD0B4E03CD0670F781F891F9A1FA11D680FCD
S1130CE0791F8A1F911DA11D6A0F711D811D911D00
S1130CF0A11D20D009F468943F912AE0269F112475
S1130D003019305D3193DEF6CF010895462F4770D8
S1130D10405D4193B3E00FD0C9F7F6CF462F4F7033
S1130D20405D4A3318F0495D31FD4052419302D091
S1130D30A9F7EACFB4E0A695979587957795679537
S1130D40BA95C9F700976105710508959B01AC0137
S1130D500A2E06945795479537952795BA95C9F75E
S1130D60620F731F841F951FA01D0895F894FFCF71
S1130D70010A000000030000000058030000000006
S1130D805B324A005B303B33323B34306D002D2DF7
S1130D902D2D2D2D2D2D2D2D2D2D2D2D2D2D2D2D7F
S1130DA02D2D2D2D2D2D2D2D2D2D2D2D2D2D2D2D6F
S1130DB02D2D2D0A0D004D454E553A200A0D0030BB
S1130DC0202D204B6F6E65630A0D0031202D2052BB
S1130DD06F7A73766974204C454431200A0D0032D1
S1130DE0202D205A6861736E69204C454431200AD5
S1130DF00D0033202D204D656E752032200A0D0024
S1130E0034202D20567970697320616265636564AE
S1130E1075200A0D0035202D2047656E65726F76AA
S1130E20616E6965206361736F7661636520324822
S1130E307A200A0D005B303B33373B34306D003091
S1130E4020207A70657420646F206D656E75312082
S1130E50200A0D002B202050726964616E696520A0
S1130E604A617375200A0D002D20205A6E697A6537
S1130E706E6965204A617375200A0D000D0A4B6F77
S1130E806E63696D2070726F6772616D2E2E2E20F5
S1130E900D000D0A5072656368E1647A616D206427
S1130EA06F206D656E7520312E2E2E0D000D0A4EAD
S1130EB0657A6E616D79207072696B617A2E2E206D
S1130EC00D000D0A507265636861647A616D206477
S1130ED06F206D656E7520322E2E2E0D000D0A5377
S1130EE070757374656E69652054494D455231209F
S10D0EF06E61203220487A0D0000E4
S9030000FC
